:1000000072C000009EC000009CC000009AC00000AA
:1000100098C0000096C0000094C0000092C000008C
:1000200090C000008EC000008CC000008AC000009C
:1000300088C0000086C0000084C0000082C00000AC
:1000400080C000007EC000007CC000007AC00000BC
:1000500078C0000076C0000074C0000072C00000CC
:1000600070C000006EC000006CC000006AC00000DC
:1000700068C0000066C0000064C0000062C00000EC
:1000800060C000005EC000005CC000005AC00000FC
:1000900058C0000056C0000054C0000052C000000C
:1000A00050C000004EC000004CC000004AC000001C
:1000B00048C0000046C0000044C0000042C000002C
:1000C00040C000003EC000003CC000003AC000003C
:1000D00038C0000036C0000034C0000032C000004C
:1000E00030C00000970111241FBECFEFD1E2DEBF68
:1000F000CDBF00E00CBF12E0A0E0B2E0ECECFAE013
:1001000000E00BBF02C007900D92A433B107D9F7EE
:1001100022E0A4E3B2E001C01D92A833B207E1F7E8
:1001200010E0C3E7D0E000E005C021970109802F6F
:10013000FE01E7D1C237D10780E00807B1F78BD0C5
:10014000C3C45ECFFC01208131814281538160E4D0
:1001500072E48FE090E0B3D1215031093093CD00AB
:100160002093CC0088E18093C90086E08093CA0088
:100170000895FC014083518362837383E3CF089524
:100180008091C80085FFFCCF6093CE0008950F9347
:100190001F93CF93DF938C01EB016881662321F0DD
:1001A0002196C801EDDFF9CF6AE0C801E9DFDF91F0
:1001B000CF911F910F910895FC0180819181089545
:1001C00080E480937C0087E880937A000895FC01A6
:1001D0001182108273836283F3CF0895ECE7F0E01D
:1001E0002081DC0112968C91207F8F70822B80837E
:1001F000EAE7F0E080818064808380917A0086FD68
:10020000FCCF20917800309179004CE94203C00185
:10021000439F900D11248456904763ED72E03BD1CB
:1002200080E090E0D2C00895CF93DF93EC01D6DF59
:100230009BD079836883DF91CF910895019751F422
:100240006F3F7F4F39F440E855E260E070E084E3AF
:1002500092E08FCF0895CF93DF93CDB7DEB7AA9703
:100260000FB6F894DEBF0FBECDBF05E010E024E16D
:1002700030E040E050E061E070E0CE0101965DD0FA
:1002800024E130E041E050E062E070E0CE014196D0
:1002900054D0CE01019665D0CE0101965FD09F93D8
:1002A0008F930F2EF0E0EF2EF2E0FF2EF02DFF9255
:1002B000EF928E010F5D1F4F1F930F932AD163E0C2
:1002C00072E084E392E063DFB80184E392E05FDFF1
:1002D0006AE172E084E392E05ADFCE01419641D0B8
:1002E000CE0141963BD09F938F93FF92EF921F9345
:1002F0000F930FD16DE172E084E392E048DFB80123
:1003000084E392E044DF6AE172E084E392E03FDF5D
:100310002FEF8FE493EC215080409040E1F700C034
:1003200000000FB6F894DEBF0FBECDBFB2CF6FEFA7
:100330007FEF81E090E082CF08950F931F93FC013F
:1003400071836083538342833583248317830683B9
:10035000BA010C963CDF1F910F9108950C962CCF9B
:1003600008950C9661CF089504D06894B1118DC0A2
:10037000089570D088F09F5790F0B92F9927B75102
:10038000A0F0D1F0660F771F881F991F1AF0BA9559
:10039000C9F712C0B13081F077D0B1E0089574C0D0
:1003A000672F782F8827B85F39F0B93FCCF386954F
:1003B00077956795B395D9F73EF4909580957095AC
:1003C00061957F4F8F4F9F4F0895E89409C097FB29
:1003D0003EF490958095709561957F4F8F4F9F4F1C
:1003E0009923A9F0F92F96E9BB279395F695879560
:1003F00077956795B795F111F8CFFAF4BB0F11F423
:1004000060FF1BC06F5F7F4F8F4F9F4F16C08823C9
:1004100011F096E911C0772321F09EE8872F762FFF
:1004200005C0662371F096E8862F70E060E02AF040
:100430009A95660F771F881FDAF7880F969587952C
:1004400097F9089557FD9058440F551F59F05F3F95
:1004500071F04795880F97FB991F61F09F3F79F0E6
:1004600087950895121613061406551FF2CF469568
:10047000F1DF08C0161617061806991FF1CF8695EA
:100480007105610508940895E894BB2766277727CE
:10049000CB0197F90895AA1BBB1B51E107C0AA1F06
:1004A000BB1FA617B70710F0A61BB70B881F991F15
:1004B0005A95A9F780959095BC01CD010895A1E2C8
:1004C0001A2EAA1BBB1BFD010DC0AA1FBB1FEE1FCE
:1004D000FF1FA217B307E407F50720F0A21BB30B19
:1004E000E40BF50B661F771F881F991F1A9469F795
:1004F00060957095809590959B01AC01BD01CF01F1
:100500000895EE0FFF1F881F8BBF0790F691E02D17
:1005100019940F931F93CF93DF93CDB7DEB72E9728
:100520000FB6F894DEBF0FBECDBF0E891F8986E0DF
:100530008C831A8309838FEF9FE79E838D83AE019F
:10054000465E5F4F688D798DCE01019610D0EF81A8
:10055000F885E00FF11F10822E960FB6F894DEBFDB
:100560000FBECDBFDF91CF911F910F9108952F92B4
:100570003F924F925F926F927F928F929F92AF9233
:10058000BF92CF92DF92EF92FF920F931F93CF9380
:10059000DF93CDB7DEB72B970FB6F894DEBF0FBE53
:1005A000CDBF6C017B018A01FC0117821682838119
:1005B00081FFBFC1CE0101963C01F6019381F70195
:1005C00093FD859193FF81917F01882309F4ADC14B
:1005D000853239F493FD859193FF81917F018532B6
:1005E00021F4B60190E0D6D1E8CF912C212C312C0A
:1005F000FFE1F315D8F08B3279F038F4803279F0DE
:100600008332A1F4232D20611DC08D3261F080332F
:1006100069F4232D216016C0832D8260382EE32DCE
:10062000E4603E2E2AC0F32DF8601DC037FC2DC0BB
:1006300020ED280F2A3040F08E32B9F436FC75C117
:10064000232D2064322E19C036FE06C08AE0989E03
:10065000200D1124922E11C0EAE02E9E200D1124AF
:10066000222EF32DF0623F2E08C08C3621F4832D0C
:100670008068382E02C0883641F4F70193FD8591D9
:1006800093FF81917F018111B3CF982F9F7D955466
:10069000933028F40C5F1F4F9FE399830DC083367E
:1006A00031F0833771F0833509F055C020C0F8016F
:1006B000808189830E5F1F4F88248394912C53017E
:1006C00012C02801F2E04F0E511CF801A080B18049
:1006D00036FE03C0692D70E002C06FEF7FEFC501E9
:1006E0004ED14C018201F32DFF773F2E15C028011A
:1006F00022E0420E511CF801A080B18036FE03C0FA
:10070000692D70E002C06FEF7FEFC5012DD14C0164
:10071000F32DF0683F2E820133FC19C0822D90E04A
:1007200088169906A0F4B60180E290E033D12A94AD
:10073000F5CFF50137FC859137FE81915F01B60158
:1007400090E028D121102A9421E0821A9108811486
:10075000910479F7E1C0843611F0893639F5F80152
:1007600037FE07C060817181828193810C5F1F4FCA
:1007700008C060817181072E000C880B990B0E5FF9
:100780001F4FF32DFF763F2E97FF09C09095809560
:10079000709561957F4F8F4F9F4FF0683F2E2AE0F5
:1007A00030E0A30133D1882E861844C0853731F458
:1007B000232D2F7EB22E2AE030E025C0932D997F85
:1007C000B92E8F36C1F018F4883579F0AEC0803775
:1007D00019F0883721F0A9C0E92FE061BE2EB4FEE0
:1007E0000DC0FB2DF460BF2E09C034FE0AC0292FB6
:1007F0002660B22E06C028E030E005C020E130E0DF
:1008000002C020E132E0F801B7FE07C060817181CB
:10081000828193810C5F1F4F06C06081718180E0EF
:1008200090E00E5F1F4FA301F1D0882E8618FB2D9C
:10083000FF773F2E36FE0DC0232D2E7FA22E89146A
:1008400058F434FE0BC032FC09C0832D8E7EA82ED6
:1008500005C0B82CA32C03C0B82C01C0B92CA4FE31
:100860000FC0FE01E80DF11D8081803321F49A2D27
:10087000997EA92E09C0A2FE06C0B394B39404C009
:100880008A2D867809F0B394A3FC10C0A0FE06C0A0
:10089000B21480F4280C922C9B180DC0B21458F49A
:1008A000B60180E290E076D0B394F8CFB21418F499
:1008B0002B1802C0982C212CA4FE0FC0B60180E397
:1008C00090E068D0A2FE16C0A1FC03C088E790E0CB
:1008D00002C088E590E0B6010CC08A2D867851F000
:1008E000A1FE02C08BE201C080E2A7FC8DE2B6014E
:1008F00090E050D0891430F4B60180E390E04AD003
:100900009A94F8CF8A94F301E80DF11D8081B60125
:1009100090E040D08110F6CF222009F44ECEB601EF
:1009200080E290E037D02A94F7CFF6018681978154
:1009300002C08FEF9FEF2B960FB6F894DEBF0FBE6D
:10094000CDBFDF91CF911F910F91FF90EF90DF907E
:10095000CF90BF90AF909F908F907F906F905F905F
:100960004F903F902F900895FC010590615070408A
:100970000110D8F7809590958E0F9F1F0895FC0168
:100980006150704001900110D8F7809590958E0FBE
:100990009F1F08950F931F93CF93DF93FB01238134
:1009A00021FD03C08FEF9FEF2CC022FF16C04681B0
:1009B0005781248135814217530744F4A081B181C6
:1009C0009D012F5F3F4F318320838C932681378198
:1009D0002F5F3F4F3783268314C08B01EC01FB014F
:1009E0000084F185E02D1995892BE1F6D801169642
:1009F0008D919C911797019617969C938E931697BD
:100A0000CE01DF91CF911F910F910895FA01AA278E
:100A1000283051F1203181F1E8946F936E7F6E5F41
:100A20007F4F8F4F9F4FAF4FB1E03ED0B4E03CD0EF
:100A3000670F781F891F9A1FA11D680F791F8A1FD2
:100A4000911DA11D6A0F711D811D911DA11D20D039
:100A500009F468943F912AE0269F11243019305DF3
:100A60003193DEF6CF010895462F4770405D4193E4
:100A7000B3E00FD0C9F7F6CF462F4F70405D4A3331
:100A800018F0495D31FD4052419302D0A9F7EACFF9
:100A9000B4E0A6959795879577956795BA95C9F728
:100AA00000976105710508959B01AC010A2E06941B
:100AB0005795479537952795BA95C9F7620F731FD4
:0C0AC000841F951FA01D0895F894FFCF1F
:100ACC0025640048756D696469747920666F7220BD
:100ADC00706C616E7420313A20000D0A0048756DFF
:100AEC00696469747920666F7220706C616E742011
:040AFC00323A20006A
:00000001FF
