:1000000071C000008EC000008CC000008AC00000DB
:1000100088C0000086C0000084C0000082C00000CC
:1000200080C000007EC000007CC000007AC00000DC
:1000300078C0000076C0000074C0000072C00000EC
:1000400070C000006EC000006CC000006AC00000FC
:1000500068C0000066C0000064C0000062C000000C
:1000600060C000005EC000005CC000005AC000001C
:1000700058C0000056C0000054C0000052C000002C
:1000800050C000004EC000004CC000004AC000003C
:1000900048C0000046C0000044C0000042C000004C
:1000A00040C000003EC000003CC000003AC000005C
:1000B00038C0000036C0000034C0000032C000006C
:1000C00030C000002EC000002CC000002AC000007C
:1000D00028C0000026C0000024C0000022C000008C
:1000E00020C0000011241FBECFEFD1E2DEBFCDBF84
:1000F00000E00CBF12E0A0E0B2E0E4E2F5E000E0D6
:100100000BBF02C007900D92A236B107D9F722E0CB
:10011000A2E6B2E001C01D92A336B207E1F744D0D7
:10012000FFC16ECFFC0180819181089580E48093AE
:100130007C0087E880937A000895FC011182108288
:1001400073836283F3CF0895ECE7F0E02081DC0154
:1001500012968C91207F8F70822B8083EAE7F0E0EB
:1001600080818064808380917A0086FDFCCF20911D
:100170007800309179004CE94203C001439F900D13
:1001800011248456904763ED72E083D180E090E0C3
:100190001AC10895CF93DF93EC01D6DFE3D07983C2
:1001A0006883DF91CF910895CF93DF93CDB7DEB70A
:1001B000A0970FB6F894DEBF0FBECDBF67E670E024
:1001C00082E692E08DD005E010E024E130E040E0EE
:1001D00050E061E070E0CE01019667D024E130E0AC
:1001E00041E050E062E070E0CE0141965ED0CE0189
:1001F000019673D060E072E082E692E083D0CE0197
:10020000019664D0682F82E692E08ED067E172E0BA
:1002100082E692E077D06AE172E082E692E072D004
:10022000CE01019656D0682F82E692E07DD067E13C
:1002300072E082E692E066D067E172E082E692E0E8
:1002400061D02FEF89E698E1215080409040E1F79E
:1002500000C00000CE01419640D062E372E082E629
:1002600092E050D0CE01419631D0682F82E692E0E4
:100270005BD067E172E082E692E044D069E472E02C
:1002800082E692E03FD0CE01419623D0682F82E6ED
:1002900092E04AD067E172E082E692E033D067E113
:1002A00072E082E692E02ED0A2CF0F931F93FC0162
:1002B000718360835383428335832483178306834A
:1002C000BA010C963ADF1F910F9108950C962ACF30
:1002D0000895FC018481958108950C965BCF089563
:1002E0007093C5006093C40088E08093C10086E0ED
:1002F0008093C20008958091C00085FFFCCF609379
:10030000C60008950F931F93CF93DF938C01EB01E9
:100310006881662321F02196C801EDDFF9CFDF91D6
:10032000CF911F910F9108950F931F93CF93DF9358
:1003300000D01F92CDB7DEB78C01862F4AE0BE01F8
:100340006F5F7F4F90E0B9D0BE016F5F7F4FC801F4
:10035000D9DF0F900F900F900F90DF91CF911F91E9
:100360000F91089504D06894B1118DC0089570D094
:1003700088F09F5790F0B92F9927B751A0F0D1F08E
:10038000660F771F881F991F1AF0BA95C9F712C018
:10039000B13081F077D0B1E0089574C0672F782F25
:1003A0008827B85F39F0B93FCCF386957795679584
:1003B000B395D9F73EF490958095709561957F4FF0
:1003C0008F4F9F4F0895E89409C097FB3EF4909596
:1003D0008095709561957F4F8F4F9F4F9923A9F01E
:1003E000F92F96E9BB279395F695879577956795AD
:1003F000B795F111F8CFFAF4BB0F11F460FF1BC0F1
:100400006F5F7F4F8F4F9F4F16C0882311F096E983
:1004100011C0772321F09EE8872F762F05C0662331
:1004200071F096E8862F70E060E02AF09A95660FEA
:10043000771F881FDAF7880F9695879597F90895A3
:1004400057FD9058440F551F59F05F3F71F0479585
:10045000880F97FB991F61F09F3F79F0879508956A
:10046000121613061406551FF2CF4695F1DF08C089
:10047000161617061806991FF1CF869571056105A6
:1004800008940895E894BB2766277727CB0197F94E
:100490000895AA1BBB1B51E107C0AA1FBB1FA617CB
:1004A000B70710F0A61BB70B881F991F5A95A9F71D
:1004B00080959095BC01CD010895BB274A3031F459
:1004C000992322F4BDE2909581959F4F01C0BB27EF
:1004D000FB015527AA27880F991FAA1FA41710F000
:1004E000A41B83955051B9F7A05DAA3308F0A95D0C
:1004F000A193009779F7B111B1931192CB0100C08C
:10050000DC01FC01672F71917723E1F7329704C07A
:100510007C916D9370836291AE17BF07C8F3089505
:04052000F894FFCF7D
:1005240048756D696469747920666F7220706C61B6
:100534006E7420313A20000D0A00546872657368A5
:100544006F6C6420666F7220706C616E7420313A37
:10055400200048756D696469747920666F72207033
:100564006C616E7420323A20005468726573686F4F
:100574006C6420666F7220706C616E7420323A2055
:02058400000075
:00000001FF
