S011000050726F6A656B7420322E73726563E2
S113000071C0000086C0000084C0000082C00000EF
S113001080C000007EC000007CC000007AC00000E8
S113002078C0000076C0000074C0000072C00000F8
S113003070C000006EC000006CC000006AC0000008
S113004068C0000066C0000064C0000062C0000018
S113005060C000005EC000005CC000005AC0000028
S113006058C0000056C0000054C0000052C0000038
S113007050C000004EC000004CC000004AC0000048
S113008048C0000046C0000044C0000042C0000058
S113009040C000003EC000003CC000003AC0000068
S11300A038C0000036C0000034C0000032C0000078
S11300B030C000002EC000002CC000002AC0000088
S11300C028C0000026C0000024C0000022C0000098
S11300D020C000001EC000001CC000001AC00000A8
S11300E018C0000011241FBECFEFD1E2DEBFCDBF88
S11300F000E00CBF12E0A0E0B2E0E2E4F4E000E0D3
S11301000BBF02C007900D92A039B107D9F78BD06D
S113011096C176CFFC016083683031F4E1E0F1E010
S11301208081806280830895693031F4E1E0F1E0F8
S113013080818064808308956A3029F4E1E0F1E0ED
S11301408081806880830895FC018081883031F447
S1130150E2E0F1E08081806280830895893031F4A7
S1130160E2E0F1E080818064808308958A3029F49C
S1130170E2E0F1E08081806880830895FC01808161
S1130180883049F485B18F7E85B9E1E0F1E0808162
S11301908F7D80830895893049F485B18F7D85B939
S11301A0E1E0F1E080818F7B808308958A3041F41F
S11301B085B18F7B85B9E1E0F1E080818F77808321
S11301C00895E62FF0E0E150FE4F2081FC012083EA
S11301D0089580E480937C0087E880937A000895F2
S11301E0DC01ECE7F0E090818C91907F8F70892B9B
S11301F08083EAE7F0E080818064808380917A00E4
S113020086FDFCCF20917800309179004CE94203BF
S1130210C001439F900D11248456904763ED72E012
S1130220C7D0CB010895CF93DF9300D000D0CDB7D2
S1130230DEB767E670E0CE01019678D005E024E1F0
S113024041E061E0CE01029635D0CE01029649D05C
S1130250182F63E072E0CE0101967AD0612FCE01AF
S1130260019688D066E172E0CE01019671D0CE018C
S1130270029659D0181770F469E172E0CE01019624
S113028067D0CE0102962FD069E472E0CE010196C8
S11302905FD005C06DE572E0CE01019659D02AEA1F
S11302A036EE86E991E02150304080409040D9F705
S11302B00000CBCFFF920F931F93CF93DF93EC01FA
S11302C0F42E122F7EDF6F2DCE01019623DF1A83C9
S11302D00B83CE017EDFDF91CF911F910F91FF90B1
S11302E008957ECF08950F931F93CF93DF93EC016E
S11302F08C010F5F1F4FC80127DF80E09B818917A6
S113030058F42FEF33ED90E3215030409040E1F763
S113031000C000008F5FF2CFC80130DFDF91CF91C2
S11303201F910F910895FC01828108957093C50077
S11303306093C40088E08093C10086E08093C2008B
S113034008958091C00085FFFCCF6093C600089596
S11303500F931F93CF93DF938C01EB016881662386
S113036021F02196C801EDDFF9CFDF91CF911F91E4
S11303700F9108950F931F93CF93DF9300D01F9293
S1130380CDB7DEB78C01862F4AE0BE016F5F7F4F89
S113039090E022D0BE016F5F7F4FC801D9DF0F907C
S11303A00F900F900F90DF91CF911F910F910895AF
S11303B0AA1BBB1B51E107C0AA1FBB1FA617B70787
S11303C010F0A61BB70B881F991F5A95A9F78095A3
S11303D09095BC01CD010895BB274A3031F499238F
S11303E022F4BDE2909581959F4F01C0BB27FB018C
S11303F05527AA27880F991FAA1FA41710F0A41B1A
S113040083955051B9F7A05DAA3308F0A95DA19373
S1130410009779F7B111B1931192CB0100C0DC01BF
S1130420FC01672F71917723E1F7329704C07C9127
S11304306D9370836291AE17BF07C8F30895F89463
S1050440FFCFE8
S113044200010243757272656E742048756D6964A9
S11304526974793A2000250A0048756D69646974E3
S1130462792062656C6F77207468726573686F6C4B
S11304726421205374617274696E672077617465B4
S113048272696E672E2E2E0A005761746572696E48
S11304926720636F6D706C6574652E0A0048756D14
S11304A269646974792069732061626F7665207466
S11304B268726573686F6C642E204E6F2077617466
S11304C26572696E67206E65656465642E0A000054
S9030000FC
