:1000000071C000008EC000008CC000008AC00000DB
:1000100088C0000086C0000084C0000082C00000CC
:1000200080C000007EC000007CC000007AC00000DC
:1000300078C0000076C0000074C0000072C00000EC
:1000400070C000006EC000006CC000006AC00000FC
:1000500068C0000066C0000064C0000062C000000C
:1000600060C000005EC000005CC000005AC000001C
:1000700058C0000056C0000054C0000052C000002C
:1000800050C000004EC000004CC000004AC000003C
:1000900048C0000046C0000044C0000042C000004C
:1000A00040C000003EC000003CC000003AC000005C
:1000B00038C0000036C0000034C0000032C000006C
:1000C00030C000002EC000002CC000002AC000007C
:1000D00028C0000026C0000024C0000022C000008C
:1000E00020C0000011241FBECFEFD1E2DEBFCDBF84
:1000F00000E00CBF12E0A0E0B2E0E8E5F5E000E0CF
:100100000BBF02C007900D92A236B107D9F722E0CB
:10011000A2E6B2E001C01D92A336B207E1F74AD0D1
:1001200019C26ECFFC01808191810895FC0182810A
:100130009381089580E480937C0087E880937A001F
:100140000895FC0111821082738362835583448376
:10015000F1CF0895ECE7F0E02081DC0114968C915A
:10016000207F8F70822B8083EAE7F0E080818064BB
:10017000808380917A0086FDFCCF209178003091B9
:1001800079004CE94203C001439F900D112484562D
:10019000904763ED72E097D180E090E02EC1089522
:1001A000CF93DF93EC01D6DFF7D079836883DF91BB
:1001B000CF910895CF93DF93CDB7DEB7A4970FB655
:1001C000F894DEBF0FBECDBF67E670E082E692E036
:1001D000A1D005E010E024E130E040E050E061E033
:1001E00070E0CE0101967CD024E130E040E050E0A8
:1001F00062E070E0CE01439673D0CE01019687D0C5
:1002000060E072E082E692E097D0CE01019679D06C
:10021000682F82E692E0A2D067E172E082E692E087
:100220008BD06AE172E082E692E086D0CE01019640
:100230006BD0682F82E692E091D067E172E082E6AF
:1002400092E07AD067E172E082E692E075D067E1F1
:1002500072E082E692E070D02FEF39E688E121501B
:1002600030408040E1F700C00000CE0143964FD0FF
:1002700062E372E082E692E05FD0CE01439641D025
:10028000682F82E692E06AD067E172E082E692E04F
:1002900053D069E472E082E692E04ED0CE014396FC
:1002A00033D0682F82E692E059D067E172E082E6AF
:1002B00092E042D067E172E082E692E03DD067E1F1
:1002C00072E082E692E038D09FEF23E234EF80E0E4
:1002D0009150204030408040D9F700C000008DCFC1
:1002E0000F931F93FC017183608353834283358393
:1002F000248317830683B9010C9623DF1F910F9186
:1003000008950C960FCF08950C9610CF08950C9673
:1003100047CF08957093C5006093C40088E0809330
:10032000C10086E08093C20008958091C00085FFDF
:10033000FCCF6093C60008950F931F93CF93DF9374
:100340008C01EB016881662321F02196C801EDDF65
:10035000F9CFDF91CF911F910F9108950F931F93C4
:10036000CF93DF9300D01F92CDB7DEB78C01862FDD
:100370004AE0BE016F5F7F4F90E0B9D0BE016F5F72
:100380007F4FC801D9DF0F900F900F900F90DF9132
:10039000CF911F910F91089504D06894B1118DC031
:1003A000089570D088F09F5790F0B92F9927B751D2
:1003B000A0F0D1F0660F771F881F991F1AF0BA9529
:1003C000C9F712C0B13081F077D0B1E0089574C0A0
:1003D000672F782F8827B85F39F0B93FCCF386951F
:1003E00077956795B395D9F73EF49095809570957C
:1003F00061957F4F8F4F9F4F0895E89409C097FBF9
:100400003EF490958095709561957F4F8F4F9F4FEB
:100410009923A9F0F92F96E9BB279395F69587952F
:1004200077956795B795F111F8CFFAF4BB0F11F4F2
:1004300060FF1BC06F5F7F4F8F4F9F4F16C0882399
:1004400011F096E911C0772321F09EE8872F762FCF
:1004500005C0662371F096E8862F70E060E02AF010
:100460009A95660F771F881FDAF7880F96958795FC
:1004700097F9089557FD9058440F551F59F05F3F65
:1004800071F04795880F97FB991F61F09F3F79F0B6
:1004900087950895121613061406551FF2CF469538
:1004A000F1DF08C0161617061806991FF1CF8695BA
:1004B0007105610508940895E894BB27662777279E
:1004C000CB0197F90895AA1BBB1B51E107C0AA1FD6
:1004D000BB1FA617B70710F0A61BB70B881F991FE5
:1004E0005A95A9F780959095BC01CD010895BB2739
:1004F0004A3031F4992322F4BDE2909581959F4FC3
:1005000001C0BB27FB015527AA27880F991FAA1FE7
:10051000A41710F0A41B83955051B9F7A05DAA331E
:1005200008F0A95DA193009779F7B111B1931192E9
:10053000CB0100C0DC01FC01672F71917723E1F74B
:10054000329704C07C916D9370836291AE17BF07A0
:08055000C8F30895F894FFCFF1
:1005580048756D696469747920666F7220706C6182
:100568006E7420313A20000D0A0054687265736871
:100578006F6C6420666F7220706C616E7420313A03
:10058800200048756D696469747920666F722070FF
:100598006C616E7420323A20005468726573686F1B
:1005A8006C6420666F7220706C616E7420323A2021
:0205B800000041
:00000001FF
