:1000000071C000008EC000008CC000008AC00000DB
:1000100088C0000086C0000084C0000082C00000CC
:1000200080C000007EC000007CC000007AC00000DC
:1000300078C0000076C0000074C0000072C00000EC
:1000400070C000006EC000006CC000006AC00000FC
:1000500068C0000066C0000064C0000062C000000C
:1000600060C000005EC000005CC000005AC000001C
:1000700058C0000056C0000054C0000052C000002C
:1000800050C000004EC000004CC000004AC000003C
:1000900048C0000046C0000044C0000042C000004C
:1000A00040C000003EC000003CC000003AC000005C
:1000B00038C0000036C0000034C0000032C000006C
:1000C00030C000002EC000002CC000002AC000007C
:1000D00028C0000026C0000024C0000022C000008C
:1000E00020C0000011241FBECFEFD1E2DEBFCDBF84
:1000F00000E00CBF12E0A0E0B2E0E8EEF4E000E0C7
:100100000BBF02C007900D92AE31B107D9F722E0C4
:10011000AEE1B2E001C01D92AF31B207E1F746D0C7
:10012000E1C16ECFFC01118210827383628315825C
:1001300014820895FC01808191810895FC018281DF
:1001400093810895FC01738362830895ECE7F0E0E6
:100150002081DC0114968C91207F8F70822B80830C
:10016000EAE7F0E080818064808380917A0086FDF8
:10017000FCCF20917800309179004CE94203C00116
:10018000439F900D11248456904763ED72E063D134
:1001900080E090E0FAC00895CF93DF93EC01D6DFC2
:1001A000C3D079836883DF91CF910895CF93DF9394
:1001B000CDB7DEB762970FB6F894DEBF0FBECDBFE6
:1001C00067E670E08EE192E06DD00AE010E02CE38B
:1001D00030E040E050E061E070E0CE01019645D0B3
:1001E000CE0101965CD060E072E08EE192E06CD0CE
:1001F000CE0101964BD0682F8EE192E077D06BE074
:1002000072E08EE192E060D062E172E08EE192E015
:100210005BD0CE0101963DD0682F8EE192E066D092
:100220006BE072E08EE192E04FD062E370E0CE01CD
:10023000019632D06EE072E08EE192E045D0CE01C0
:10024000019627D0682F8EE192E050D06BE072E0EB
:100250008EE192E039D02FEF83ED90E32150804082
:100260009040E1F700C00000BBCF0F931F93FC014B
:10027000718360835383428335832483178306838A
:10028000B9010C964FDF1F910F9108950C9652CF34
:1002900008950C9653CF08950C9654CF08950C965C
:1002A0007BCF08957093C5006093C40088E080936D
:1002B000C10086E08093C20008958091C00085FF50
:1002C000FCCF6093C60008950F931F93CF93DF93E5
:1002D0008C01EB016881662321F02196C801EDDFD6
:1002E000F9CFDF91CF911F910F9108950F931F9335
:1002F000CF93DF9300D01F92CDB7DEB78C01862F4E
:100300004AE0BE016F5F7F4F90E0B9D0BE016F5FE2
:100310007F4FC801D9DF0F900F900F900F90DF91A2
:10032000CF911F910F91089504D06894B1118DC0A1
:10033000089570D088F09F5790F0B92F9927B75142
:10034000A0F0D1F0660F771F881F991F1AF0BA9599
:10035000C9F712C0B13081F077D0B1E0089574C010
:10036000672F782F8827B85F39F0B93FCCF386958F
:1003700077956795B395D9F73EF4909580957095EC
:1003800061957F4F8F4F9F4F0895E89409C097FB69
:100390003EF490958095709561957F4F8F4F9F4F5C
:1003A0009923A9F0F92F96E9BB279395F6958795A0
:1003B00077956795B795F111F8CFFAF4BB0F11F463
:1003C00060FF1BC06F5F7F4F8F4F9F4F16C088230A
:1003D00011F096E911C0772321F09EE8872F762F40
:1003E00005C0662371F096E8862F70E060E02AF081
:1003F0009A95660F771F881FDAF7880F969587956D
:1004000097F9089557FD9058440F551F59F05F3FD5
:1004100071F04795880F97FB991F61F09F3F79F026
:1004200087950895121613061406551FF2CF4695A8
:10043000F1DF08C0161617061806991FF1CF86952A
:100440007105610508940895E894BB27662777270E
:10045000CB0197F90895AA1BBB1B51E107C0AA1F46
:10046000BB1FA617B70710F0A61BB70B881F991F55
:100470005A95A9F780959095BC01CD010895BB27A9
:100480004A3031F4992322F4BDE2909581959F4F33
:1004900001C0BB27FB015527AA27880F991FAA1F58
:1004A000A41710F0A41B83955051B9F7A05DAA338F
:1004B00008F0A95DA193009779F7B111B19311925A
:1004C000CB0100C0DC01FC01672F71917723E1F7BC
:1004D000329704C07C916D9370836291AE17BF0711
:0804E000C8F30895F894FFCF62
:1004E80048756D69646974793A20000D0A004E6593
:0E04F80077205468726573686F6C643A200058
:00000001FF
